{
  "contractName": "FundraiserFactory",
  "abi": [
    {
      "anonymous": false,
      "inputs": [
        {
          "indexed": true,
          "internalType": "contract Fundraiser",
          "name": "fundraiser",
          "type": "address"
        },
        {
          "indexed": true,
          "internalType": "address",
          "name": "owner",
          "type": "address"
        }
      ],
      "name": "FundraiserCreated",
      "type": "event"
    },
    {
      "inputs": [],
      "name": "fundraisersCount",
      "outputs": [
        {
          "internalType": "uint256",
          "name": "",
          "type": "uint256"
        }
      ],
      "stateMutability": "view",
      "type": "function",
      "constant": true
    },
    {
      "inputs": [
        {
          "internalType": "string",
          "name": "name",
          "type": "string"
        },
        {
          "internalType": "string",
          "name": "url",
          "type": "string"
        },
        {
          "internalType": "string",
          "name": "imageUrl",
          "type": "string"
        },
        {
          "internalType": "string",
          "name": "description",
          "type": "string"
        },
        {
          "internalType": "address payable",
          "name": "beneficiary",
          "type": "address"
        }
      ],
      "name": "createFundraiser",
      "outputs": [],
      "stateMutability": "nonpayable",
      "type": "function"
    },
    {
      "inputs": [
        {
          "internalType": "uint256",
          "name": "limit",
          "type": "uint256"
        },
        {
          "internalType": "uint256",
          "name": "offset",
          "type": "uint256"
        }
      ],
      "name": "fundraisers",
      "outputs": [
        {
          "internalType": "contract Fundraiser[]",
          "name": "coll",
          "type": "address[]"
        }
      ],
      "stateMutability": "view",
      "type": "function",
      "constant": true
    }
  ],
  "bytecode": "0x608060405234801561001057600080fd5b50612514806100206000396000f3fe60806040523480156200001157600080fd5b5060043610620000465760003560e01c806311d752ad146200004b578063704914f8146200006b5780639d3b435514620000a1575b600080fd5b62000069600480360381019062000063919062000570565b620000c3565b005b620000896004803603810190620000839190620006af565b620001cf565b6040516200009891906200081e565b60405180910390f35b620000ab6200037b565b604051620000ba919062000853565b60405180910390f35b6000858585858533604051620000d99062000387565b620000ea9695949392919062000939565b604051809103906000f08015801562000107573d6000803e3d6000fd5b5090506000819080600181540180825580915050600190039060005260206000200160009091909190916101000a81548173ffffffffffffffffffffffffffffffffffffffff021916908373ffffffffffffffffffffffffffffffffffffffff1602179055503373ffffffffffffffffffffffffffffffffffffffff168173ffffffffffffffffffffffffffffffffffffffff167fa2398daac0c8053a1e3c0280916c2ec6bc884f0959c27e639a4db829b7eabfb160405160405180910390a3505050505050565b6060620001db6200037b565b82111562000220576040517f08c379a0000000000000000000000000000000000000000000000000000000008152600401620002179062000a12565b60405180910390fd5b6000826200022d6200037b565b62000239919062000a63565b90508381106200024a57836200024c565b805b9050601481106200025f57601462000261565b805b90508067ffffffffffffffff81111562000280576200027f620003c4565b5b604051908082528060200260200182016040528015620002af5781602001602082028036833780820191505090505b50915060005b81811015620003735760008185620002ce919062000a9e565b81548110620002e257620002e162000afb565b5b9060005260206000200160009054906101000a900473ffffffffffffffffffffffffffffffffffffffff1683828151811062000323576200032262000afb565b5b602002602001019073ffffffffffffffffffffffffffffffffffffffff16908173ffffffffffffffffffffffffffffffffffffffff168152505080806200036a9062000b2a565b915050620002b5565b505092915050565b60008080549050905090565b6119678062000b7883390190565b6000604051905090565b600080fd5b600080fd5b600080fd5b600080fd5b6000601f19601f8301169050919050565b7f4e487b7100000000000000000000000000000000000000000000000000000000600052604160045260246000fd5b620003fe82620003b3565b810181811067ffffffffffffffff8211171562000420576200041f620003c4565b5b80604052505050565b60006200043562000395565b9050620004438282620003f3565b919050565b600067ffffffffffffffff821115620004665762000465620003c4565b5b6200047182620003b3565b9050602081019050919050565b82818337600083830152505050565b6000620004a46200049e8462000448565b62000429565b905082815260208101848484011115620004c357620004c2620003ae565b5b620004d08482856200047e565b509392505050565b600082601f830112620004f057620004ef620003a9565b5b8135620005028482602086016200048d565b91505092915050565b600073ffffffffffffffffffffffffffffffffffffffff82169050919050565b600062000538826200050b565b9050919050565b6200054a816200052b565b81146200055657600080fd5b50565b6000813590506200056a816200053f565b92915050565b600080600080600060a086880312156200058f576200058e6200039f565b5b600086013567ffffffffffffffff811115620005b057620005af620003a4565b5b620005be88828901620004d8565b955050602086013567ffffffffffffffff811115620005e257620005e1620003a4565b5b620005f088828901620004d8565b945050604086013567ffffffffffffffff811115620006145762000613620003a4565b5b6200062288828901620004d8565b935050606086013567ffffffffffffffff811115620006465762000645620003a4565b5b6200065488828901620004d8565b9250506080620006678882890162000559565b9150509295509295909350565b6000819050919050565b620006898162000674565b81146200069557600080fd5b50565b600081359050620006a9816200067e565b92915050565b60008060408385031215620006c957620006c86200039f565b5b6000620006d98582860162000698565b9250506020620006ec8582860162000698565b9150509250929050565b600081519050919050565b600082825260208201905092915050565b6000819050602082019050919050565b6000819050919050565b60006200074d6200074762000741846200050b565b62000722565b6200050b565b9050919050565b600062000761826200072c565b9050919050565b6000620007758262000754565b9050919050565b620007878162000768565b82525050565b60006200079b83836200077c565b60208301905092915050565b6000602082019050919050565b6000620007c182620006f6565b620007cd818562000701565b9350620007da8362000712565b8060005b8381101562000811578151620007f588826200078d565b97506200080283620007a7565b925050600181019050620007de565b5085935050505092915050565b600060208201905081810360008301526200083a8184620007b4565b905092915050565b6200084d8162000674565b82525050565b60006020820190506200086a600083018462000842565b92915050565b600081519050919050565b600082825260208201905092915050565b60005b83811015620008ac5780820151818401526020810190506200088f565b83811115620008bc576000848401525b50505050565b6000620008cf8262000870565b620008db81856200087b565b9350620008ed8185602086016200088c565b620008f881620003b3565b840191505092915050565b6200090e816200052b565b82525050565b600062000921826200050b565b9050919050565b620009338162000914565b82525050565b600060c0820190508181036000830152620009558189620008c2565b905081810360208301526200096b8188620008c2565b90508181036040830152620009818187620008c2565b90508181036060830152620009978186620008c2565b9050620009a8608083018562000903565b620009b760a083018462000928565b979650505050505050565b7f6f6666736574206f7574206f6620626f756e6473000000000000000000000000600082015250565b6000620009fa6014836200087b565b915062000a0782620009c2565b602082019050919050565b6000602082019050818103600083015262000a2d81620009eb565b9050919050565b7f4e487b7100000000000000000000000000000000000000000000000000000000600052601160045260246000fd5b600062000a708262000674565b915062000a7d8362000674565b92508282101562000a935762000a9262000a34565b5b828203905092915050565b600062000aab8262000674565b915062000ab88362000674565b9250827fffffffffffffffffffffffffffffffffffffffffffffffffffffffffffffffff0382111562000af05762000aef62000a34565b5b828201905092915050565b7f4e487b7100000000000000000000000000000000000000000000000000000000600052603260045260246000fd5b600062000b378262000674565b91507fffffffffffffffffffffffffffffffffffffffffffffffffffffffffffffffff820362000b6c5762000b6b62000a34565b5b60018201905091905056fe60806040523480156200001157600080fd5b5060405162001967380380620019678339818101604052810190620000379190620004dc565b620000576200004b6200011960201b60201c565b6200012160201b60201c565b85600490805190602001906200006f929190620001e5565b50846005908051906020019062000088929190620001e5565b508360069080519060200190620000a1929190620001e5565b508260079080519060200190620000ba929190620001e5565b5081600860006101000a81548173ffffffffffffffffffffffffffffffffffffffff021916908373ffffffffffffffffffffffffffffffffffffffff1602179055506200010d816200012160201b60201c565b50505050505062000658565b600033905090565b60008060009054906101000a900473ffffffffffffffffffffffffffffffffffffffff169050816000806101000a81548173ffffffffffffffffffffffffffffffffffffffff021916908373ffffffffffffffffffffffffffffffffffffffff1602179055508173ffffffffffffffffffffffffffffffffffffffff168173ffffffffffffffffffffffffffffffffffffffff167f8be0079c531659141344cd1fd0a4f28419497f9722a3daafe3b4186f6b6457e060405160405180910390a35050565b828054620001f39062000623565b90600052602060002090601f01602090048101928262000217576000855562000263565b82601f106200023257805160ff191683800117855562000263565b8280016001018555821562000263579182015b828111156200026257825182559160200191906001019062000245565b5b50905062000272919062000276565b5090565b5b808211156200029157600081600090555060010162000277565b5090565b6000604051905090565b600080fd5b600080fd5b600080fd5b600080fd5b6000601f19601f8301169050919050565b7f4e487b7100000000000000000000000000000000000000000000000000000000600052604160045260246000fd5b620002fe82620002b3565b810181811067ffffffffffffffff8211171562000320576200031f620002c4565b5b80604052505050565b60006200033562000295565b9050620003438282620002f3565b919050565b600067ffffffffffffffff821115620003665762000365620002c4565b5b6200037182620002b3565b9050602081019050919050565b60005b838110156200039e57808201518184015260208101905062000381565b83811115620003ae576000848401525b50505050565b6000620003cb620003c58462000348565b62000329565b905082815260208101848484011115620003ea57620003e9620002ae565b5b620003f78482856200037e565b509392505050565b600082601f830112620004175762000416620002a9565b5b815162000429848260208601620003b4565b91505092915050565b600073ffffffffffffffffffffffffffffffffffffffff82169050919050565b60006200045f8262000432565b9050919050565b620004718162000452565b81146200047d57600080fd5b50565b600081519050620004918162000466565b92915050565b6000620004a48262000432565b9050919050565b620004b68162000497565b8114620004c257600080fd5b50565b600081519050620004d681620004ab565b92915050565b60008060008060008060c08789031215620004fc57620004fb6200029f565b5b600087015167ffffffffffffffff8111156200051d576200051c620002a4565b5b6200052b89828a01620003ff565b965050602087015167ffffffffffffffff8111156200054f576200054e620002a4565b5b6200055d89828a01620003ff565b955050604087015167ffffffffffffffff811115620005815762000580620002a4565b5b6200058f89828a01620003ff565b945050606087015167ffffffffffffffff811115620005b357620005b2620002a4565b5b620005c189828a01620003ff565b9350506080620005d489828a0162000480565b92505060a0620005e789828a01620004c5565b9150509295509295509295565b7f4e487b7100000000000000000000000000000000000000000000000000000000600052602260045260246000fd5b600060028204905060018216806200063c57607f821691505b602082108103620006525762000651620005f4565b5b50919050565b6112ff80620006686000396000f3fe6080604052600436106100ec5760003560e01c80635600f04f1161008a578063aba8315011610059578063aba83150146102d1578063de2ed893146102fc578063ed88c68e14610327578063f2fde38b14610331576100ed565b80635600f04f14610239578063715018a6146102645780637284e4161461027b5780638da5cb5b146102a6576100ed565b80631c31f710116100c65780631c31f710146101a35780631f522595146101cc57806338af3eed146101f75780633ccfd60b14610222576100ed565b80630180b97c1461012157806306fdde031461014c5780631a57f7b414610177576100ed565b5b6101023460015461035a90919063ffffffff16565b6001819055506002600081548092919061011b90610d46565b91905055005b34801561012d57600080fd5b50610136610370565b6040516101439190610d9d565b60405180910390f35b34801561015857600080fd5b506101616103ba565b60405161016e9190610e51565b60405180910390f35b34801561018357600080fd5b5061018c610448565b60405161019a929190610f31565b60405180910390f35b3480156101af57600080fd5b506101ca60048036038101906101c59190610fcb565b6105bd565b005b3480156101d857600080fd5b506101e161067d565b6040516101ee9190610d9d565b60405180910390f35b34801561020357600080fd5b5061020c610683565b6040516102199190611007565b60405180910390f35b34801561022e57600080fd5b506102376106a9565b005b34801561024557600080fd5b5061024e6107cd565b60405161025b9190610e51565b60405180910390f35b34801561027057600080fd5b5061027961085b565b005b34801561028757600080fd5b506102906108e3565b60405161029d9190610e51565b60405180910390f35b3480156102b257600080fd5b506102bb610971565b6040516102c89190611043565b60405180910390f35b3480156102dd57600080fd5b506102e661099a565b6040516102f39190610e51565b60405180910390f35b34801561030857600080fd5b50610311610a28565b60405161031e9190610d9d565b60405180910390f35b61032f610a2e565b005b34801561033d57600080fd5b506103586004803603810190610353919061108a565b610b4a565b005b6000818361036891906110b7565b905092915050565b6000600360003373ffffffffffffffffffffffffffffffffffffffff1673ffffffffffffffffffffffffffffffffffffffff16815260200190815260200160002080549050905090565b600480546103c79061113c565b80601f01602080910402602001604051908101604052809291908181526020018280546103f39061113c565b80156104405780601f1061041557610100808354040283529160200191610440565b820191906000526020600020905b81548152906001019060200180831161042357829003601f168201915b505050505081565b6060806000610455610370565b90508067ffffffffffffffff8111156104715761047061116d565b5b60405190808252806020026020018201604052801561049f5781602001602082028036833780820191505090505b5092508067ffffffffffffffff8111156104bc576104bb61116d565b5b6040519080825280602002602001820160405280156104ea5781602001602082028036833780820191505090505b50915060005b818110156105b7576000600360003373ffffffffffffffffffffffffffffffffffffffff1673ffffffffffffffffffffffffffffffffffffffff168152602001908152602001600020828154811061054b5761054a61119c565b5b9060005260206000209060020201905080600001548583815181106105735761057261119c565b5b60200260200101818152505080600101548483815181106105975761059661119c565b5b6020026020010181815250505080806105af90610d46565b9150506104f0565b50509091565b6105c5610c41565b73ffffffffffffffffffffffffffffffffffffffff166105e3610971565b73ffffffffffffffffffffffffffffffffffffffff1614610639576040517f08c379a000000000000000000000000000000000000000000000000000000000815260040161063090611217565b60405180910390fd5b80600860006101000a81548173ffffffffffffffffffffffffffffffffffffffff021916908373ffffffffffffffffffffffffffffffffffffffff16021790555050565b60025481565b600860009054906101000a900473ffffffffffffffffffffffffffffffffffffffff1681565b6106b1610c41565b73ffffffffffffffffffffffffffffffffffffffff166106cf610971565b73ffffffffffffffffffffffffffffffffffffffff1614610725576040517f08c379a000000000000000000000000000000000000000000000000000000000815260040161071c90611217565b60405180910390fd5b6000479050600860009054906101000a900473ffffffffffffffffffffffffffffffffffffffff1673ffffffffffffffffffffffffffffffffffffffff166108fc829081150290604051600060405180830381858888f19350505050158015610792573d6000803e3d6000fd5b507f5b6b431d4476a211bb7d41c20d1aab9ae2321deee0d20be3d9fc9b1093fa6e3d816040516107c29190610d9d565b60405180910390a150565b600580546107da9061113c565b80601f01602080910402602001604051908101604052809291908181526020018280546108069061113c565b80156108535780601f1061082857610100808354040283529160200191610853565b820191906000526020600020905b81548152906001019060200180831161083657829003601f168201915b505050505081565b610863610c41565b73ffffffffffffffffffffffffffffffffffffffff16610881610971565b73ffffffffffffffffffffffffffffffffffffffff16146108d7576040517f08c379a00000000000000000000000000000000000000000000000000000000081526004016108ce90611217565b60405180910390fd5b6108e16000610c49565b565b600780546108f09061113c565b80601f016020809104026020016040519081016040528092919081815260200182805461091c9061113c565b80156109695780601f1061093e57610100808354040283529160200191610969565b820191906000526020600020905b81548152906001019060200180831161094c57829003601f168201915b505050505081565b60008060009054906101000a900473ffffffffffffffffffffffffffffffffffffffff16905090565b600680546109a79061113c565b80601f01602080910402602001604051908101604052809291908181526020018280546109d39061113c565b8015610a205780601f106109f557610100808354040283529160200191610a20565b820191906000526020600020905b815481529060010190602001808311610a0357829003601f168201915b505050505081565b60015481565b60006040518060400160405280348152602001428152509050600360003373ffffffffffffffffffffffffffffffffffffffff1673ffffffffffffffffffffffffffffffffffffffff16815260200190815260200160002081908060018154018082558091505060019003906000526020600020906002020160009091909190915060008201518160000155602082015181600101555050610adb3460015461035a90919063ffffffff16565b60018190555060026000815480929190610af490610d46565b91905055503373ffffffffffffffffffffffffffffffffffffffff167f264f630d9efa0d07053a31163641d9fcc0adafc9d9e76f1c37c2ce3a558d2c5234604051610b3f9190610d9d565b60405180910390a250565b610b52610c41565b73ffffffffffffffffffffffffffffffffffffffff16610b70610971565b73ffffffffffffffffffffffffffffffffffffffff1614610bc6576040517f08c379a0000000000000000000000000000000000000000000000000000000008152600401610bbd90611217565b60405180910390fd5b600073ffffffffffffffffffffffffffffffffffffffff168173ffffffffffffffffffffffffffffffffffffffff1603610c35576040517f08c379a0000000000000000000000000000000000000000000000000000000008152600401610c2c906112a9565b60405180910390fd5b610c3e81610c49565b50565b600033905090565b60008060009054906101000a900473ffffffffffffffffffffffffffffffffffffffff169050816000806101000a81548173ffffffffffffffffffffffffffffffffffffffff021916908373ffffffffffffffffffffffffffffffffffffffff1602179055508173ffffffffffffffffffffffffffffffffffffffff168173ffffffffffffffffffffffffffffffffffffffff167f8be0079c531659141344cd1fd0a4f28419497f9722a3daafe3b4186f6b6457e060405160405180910390a35050565b7f4e487b7100000000000000000000000000000000000000000000000000000000600052601160045260246000fd5b6000819050919050565b6000610d5182610d3c565b91507fffffffffffffffffffffffffffffffffffffffffffffffffffffffffffffffff8203610d8357610d82610d0d565b5b600182019050919050565b610d9781610d3c565b82525050565b6000602082019050610db26000830184610d8e565b92915050565b600081519050919050565b600082825260208201905092915050565b60005b83811015610df2578082015181840152602081019050610dd7565b83811115610e01576000848401525b50505050565b6000601f19601f8301169050919050565b6000610e2382610db8565b610e2d8185610dc3565b9350610e3d818560208601610dd4565b610e4681610e07565b840191505092915050565b60006020820190508181036000830152610e6b8184610e18565b905092915050565b600081519050919050565b600082825260208201905092915050565b6000819050602082019050919050565b610ea881610d3c565b82525050565b6000610eba8383610e9f565b60208301905092915050565b6000602082019050919050565b6000610ede82610e73565b610ee88185610e7e565b9350610ef383610e8f565b8060005b83811015610f24578151610f0b8882610eae565b9750610f1683610ec6565b925050600181019050610ef7565b5085935050505092915050565b60006040820190508181036000830152610f4b8185610ed3565b90508181036020830152610f5f8184610ed3565b90509392505050565b600080fd5b600073ffffffffffffffffffffffffffffffffffffffff82169050919050565b6000610f9882610f6d565b9050919050565b610fa881610f8d565b8114610fb357600080fd5b50565b600081359050610fc581610f9f565b92915050565b600060208284031215610fe157610fe0610f68565b5b6000610fef84828501610fb6565b91505092915050565b61100181610f8d565b82525050565b600060208201905061101c6000830184610ff8565b92915050565b600061102d82610f6d565b9050919050565b61103d81611022565b82525050565b60006020820190506110586000830184611034565b92915050565b61106781611022565b811461107257600080fd5b50565b6000813590506110848161105e565b92915050565b6000602082840312156110a05761109f610f68565b5b60006110ae84828501611075565b91505092915050565b60006110c282610d3c565b91506110cd83610d3c565b9250827fffffffffffffffffffffffffffffffffffffffffffffffffffffffffffffffff0382111561110257611101610d0d565b5b828201905092915050565b7f4e487b7100000000000000000000000000000000000000000000000000000000600052602260045260246000fd5b6000600282049050600182168061115457607f821691505b6020821081036111675761116661110d565b5b50919050565b7f4e487b7100000000000000000000000000000000000000000000000000000000600052604160045260246000fd5b7f4e487b7100000000000000000000000000000000000000000000000000000000600052603260045260246000fd5b7f4f776e61626c653a2063616c6c6572206973206e6f7420746865206f776e6572600082015250565b6000611201602083610dc3565b915061120c826111cb565b602082019050919050565b60006020820190508181036000830152611230816111f4565b9050919050565b7f4f776e61626c653a206e6577206f776e657220697320746865207a65726f206160008201527f6464726573730000000000000000000000000000000000000000000000000000602082015250565b6000611293602683610dc3565b915061129e82611237565b604082019050919050565b600060208201905081810360008301526112c281611286565b905091905056fea26469706673582212209a7493b6069e85dffca396057a946c0bce41b0869b02b24ffa3caed3ea1a829664736f6c634300080d0033a26469706673582212202600f5fcbd8c099d5e0118106a4539988dcf06a0102d98fb7fe1ffcc7714e7b564736f6c634300080d0033",
  "immutableReferences": {},
  "source": "pragma solidity >=0.4.22 <0.9.0;\n\nimport \"./Fundraiser.sol\";\n\ncontract FundraiserFactory {\n  // most items that can be returned from fundraisers function\n  uint256 constant maxLimit = 20;\n\n  Fundraiser[] private _fundraisers;\n  \n\n  event FundraiserCreated(Fundraiser indexed fundraiser, address indexed owner);\n  \n  function fundraisersCount() public view returns(uint256) {\n       return _fundraisers.length;\n  }\n\n  function createFundraiser(\n      string memory name,\n      string memory url,\n      string memory imageUrl,\n      string memory description,\n      address payable beneficiary\n      )\n      public\n      {\n         Fundraiser fundraiser = new Fundraiser(\n\t    name,\n\t    url,\n\t    imageUrl,\n\t    description,\n\t    beneficiary,\n\t    msg.sender\n\t    );\n\t    _fundraisers.push(fundraiser);\n\t    emit FundraiserCreated(fundraiser, msg.sender);\n\n      }\n\n    function fundraisers(uint256 limit, uint256 offset)\n       public\n       view\n       returns(Fundraiser[] memory coll)\n       {\n\n         require(offset <= fundraisersCount(), \"offset out of bounds\");\n\t \n         uint256 size = fundraisersCount() - offset;\n\t size = size < limit ? size: limit;\n\t size = size < maxLimit ? size: maxLimit;\n\t coll = new Fundraiser[](size);\n         for(uint256 i = 0; i < size; i++){\n\t    coll[i] = _fundraisers[offset+i];\n\t }\n\t \n         return coll;\n\n       }\n   \n}",
  "sourcePath": "/home/mattmann/git/smartcontracts/fundraiser-dapp/contracts/FundraiserFactory.sol",
  "compiler": {
    "name": "solc",
    "version": "0.8.13+commit.abaa5c0e.Emscripten.clang"
  },
  "schemaVersion": "3.4.7",
  "updatedAt": "2022-05-30T16:06:31.945Z",
  "networkType": "ethereum",
  "devdoc": {
    "kind": "dev",
    "methods": {},
    "version": 1
  },
  "userdoc": {
    "kind": "user",
    "methods": {},
    "version": 1
  }
}